:020000040800F2
:1000000000400220AD450008B5440008BD4400088A
:1000100000000000000000000000000000000000E0
:10002000000000000000000000000000C5440008BF
:100030000000000000000000CF440008D944000880
:10004000FD450008FD450008FD450008FD45000888
:10005000FD450008FD450008FD450008FD45000878
:10006000FD450008FD450008FD450008FD45000868
:10007000FD450008FD450008FD450008FD45000858
:10008000E94400080D450008FD450008FD4500084D
:10009000FD45000825450008FD450008FD45000810
:1000A000FD450008FD450008FD450008FD45000828
:0C00B000FD4500083D450008FD45000826
:1000BC0010B5064C2378002B07D1054B002B02D032
:1000CC00044800E000BF0123237010BD6C00002029
:1000DC00000000000C980008044B10B5002B03D056
:1000EC000349044800E000BF10BDC04600000000FA
:1000FC00700000200C980008002243088B4274D337
:10010C0003098B425FD3030A8B4244D3030B8B420C
:10011C0028D3030C8B420DD3FF22090212BA030C15
:10012C008B4202D31212090265D0030B8B4219D3F6
:10013C0000E0090AC30B8B4201D3CB03C01A524116
:10014C00830B8B4201D38B03C01A5241430B8B425E
:10015C0001D34B03C01A5241030B8B4201D30B0347
:10016C00C01A5241C30A8B4201D3CB02C01A52416E
:10017C00830A8B4201D38B02C01A5241430A8B4231
:10018C0001D34B02C01A5241030A8B4201D30B021A
:10019C00C01A5241CDD2C3098B4201D3CB01C01A34
:1001AC00524183098B4201D38B01C01A524143093E
:1001BC008B4201D34B01C01A524103098B4201D32C
:1001CC000B01C01A5241C3088B4201D3CB00C01A99
:1001DC00524183088B4201D38B00C01A5241430811
:1001EC008B4201D34B00C01A5241411A00D2014636
:1001FC00524110467047FFE701B5002000F0F0F8BF
:10020C0002BDC0460029F7D076E7704703460B4382
:10021C007FD4002243088B4274D303098B425FD3F3
:10022C00030A8B4244D3030B8B4228D3030C8B421F
:10023C000DD3FF22090212BA030C8B4202D3121205
:10024C00090265D0030B8B4219D300E0090AC30BDA
:10025C008B4201D3CB03C01A5241830B8B4201D387
:10026C008B03C01A5241430B8B4201D34B03C01A70
:10027C005241030B8B4201D30B03C01A5241C30AE8
:10028C008B4201D3CB02C01A5241830A8B4201D359
:10029C008B02C01A5241430A8B4201D34B02C01A43
:1002AC005241030A8B4201D30B02C01A5241CDD2E8
:1002BC00C3098B4201D3CB01C01A524183098B4233
:1002CC0001D38B01C01A524143098B4201D34B011C
:1002DC00C01A524103098B4201D30B01C01A52417F
:1002EC00C3088B4201D3CB00C01A524183088B4206
:1002FC0001D38B00C01A524143088B4201D34B00EF
:10030C00C01A5241411A00D2014652411046704760
:10031C005DE0CA0F00D04942031000D34042534065
:10032C0000229C4603098B422DD3030A8B4212D325
:10033C00FC22890112BA030A8B420CD38901921157
:10034C008B4208D3890192118B4204D389013AD094
:10035C00921100E08909C3098B4201D3CB01C01A69
:10036C00524183098B4201D38B01C01A524143097C
:10037C008B4201D34B01C01A524103098B4201D36A
:10038C000B01C01A5241C3088B4201D3CB00C01AD7
:10039C00524183088B4201D38B00C01A5241D9D2EF
:1003AC0043088B4201D34B00C01A5241411A00D270
:1003BC000146634652415B10104601D34042002B6C
:1003CC0000D54942704763465B1000D3404201B5EB
:1003DC00002000F005F802BD0029F8D016E77047A0
:1003EC007047C0468446100062468C46190063462E
:1003FC0000E0C0461FB501F0E9FA002801D4002145
:10040C00C8421FBD10B501F02DFA4042013010BD9D
:10041C0010B501F0DBFA002801DB002010BD012033
:10042C0010BDC04610B501F0D1FA002801DD002046
:10043C0010BD012010BDC04610B501F057FA0028C0
:10044C0001DC002010BD012010BDC04610B501F02C
:10045C004DFA002801DA002010BD012010BDC04665
:10046C0070B500220C4B04000D00FFF7EFFF0028C5
:10047C0004D12000290002F029FA70BD064B00229D
:10048C002000290001F0F6FD02F020FA80231B0663
:10049C009C466044F1E7C0460000E041F0B546469A
:1004AC004F46D6464502C0B5C30F470098460E1CB2
:1004BC006D0A3F0E5BD0FF2F21D08023ED00DB04B3
:1004CC001D43002399469A467F3F74027300640AC9
:1004DC001B0EF60F002B20D0FF2B43D080220020C8
:1004EC00E400D20414437F3B4246FF1A4B46724051
:1004FC000F2B00D99DE071499B00CB589F46002DD6
:10050C005AD108239946063B74029A467300FF277A
:10051C00640A1B0EF60F002BDED1002C3BD10123FD
:10052C0042464946724019430E2918D8644889003E
:10053C0041588F465346022B00D1B8E0032B6ED0A6
:10054C0042462C00012B40D100200024C005204342
:10055C00D2071043E0BCBA46B146A846F0BDFF2016
:10056C000024F3E7002C20D10223FF3FD8E7002D15
:10057C0005D104239946033B00279A46A5E728009A
:10058C0002F0FCFA7627431F9D4000237F429946D8
:10059C009A463F1A99E7200002F0F0FA431F9C405C
:1005AC0076235B421B1A00209EE703234A461A431C
:1005BC0091460320FC3397E70C239946093BFF2710
:1005CC009A4682E703282CD0320038007F3000286E
:1005DC0047DD630704D00F232340042B00D00434E1
:1005EC00230103D53800374B80301C40FE28B6DC85
:1005FC00A401640AC0B2A9E780240022FF20E4030E
:10060C00A4E78023DB031D4201D01C420BD08024C5
:10061C00E4032C4364024246FF20640A96E74646F4
:10062C002C008023DB031C4364023200FF20640A8D
:10063C008CE76D01600185422DD21B230024013F04
:10064C000126290064006D00002901DB854201D3DD
:10065C002D1A3443013B002BF3D16B1E9D412C43CF
:10066C00B3E701231B1A1B2B00DD6DE721009E371E
:10067C00D940BC400B00611E8C412343590704D068
:10068C000F211940042900D00433590113D49B01C4
:10069C0000205C0A5AE71A2301242D1AD0E7981E71
:1006AC0043425841404232000024C0B24EE7424619
:1006BC00FF2000244AE70120002447E72498000883
:1006CC0064980008FFFFFFF7F0B54F464646D64644
:1006DC004400C0B546020F1C760A240EC50F002C30
:1006EC0000D1DAE0FF2C74D08023F600DB041E432B
:1006FC00002399469A467F3C7B025B0A98467B0016
:10070C001B0EFF0F002B74D0FF2B00D18EE0424646
:10071C008021D200C90411437F3B2A00E4184B46C8
:10072C007A408846D2B20A2B75DC4B460020022B4D
:10073C000FDD494601238B40A621C9000B4269D12C
:10074C00902189000B4200D000E18821194200D091
:10075C00F5E041460904090C43460800350C360403
:10076C001B0C360C704369435E435D437618030CD7
:10077C009B19994203D9802149028C466544000497
:10078C001904000C09188E01701E86411B0C890E71
:10079C005B190E439B011E431B016CD423007F335A
:1007AC00002B00DCB1E0150071070BD00F202100ED
:1007BC003040042806D00436320103D56E4B1E405F
:1007CC000B008033FE2B00DDBDE0B201520ADBB220
:1007DC0048E0002E00D092E008239946063B9A464A
:1007EC007B025B0A98467B00FF241B0EFF0F002B3D
:1007FC008AD14246002A64D14946013211438946C6
:10080C000A2908DC7D400120EAB2022991DC15009E
:10081C00002227E015005346022B00D193E0032B56
:10082C001AD0012B2CD1002300221BE04346FF34AD
:10083C00002B55D003214B460B4319000A2B00DC2F
:10084C0092E00F2B00D08CE08022D203164203D012
:10085C004346134200D17DE08022D2033243520240
:10086C00520AFF23D805ED0710432843E0BCBA46D3
:10087C00B146A846F0BD0123150071081E400E4379
:10088C0023008033611C002B41DD720794D00F22B2
:10089C003240042A00D08EE78EE7002E05D10423C7
:1008AC009946033B00249A4626E7300002F066F98D
:1008BC007624431F9E400023644299469A46241A8C
:1008CC001AE7404602F05AF94B46241A763C0A2B9A
:1008DC00A1DC4346053883407D409846EAB224E7C4
:1008EC004A46023313432A007A40D2B20A2B92DCD6
:1008FC0049461500002926D09946022019E70C23F9
:10090C009946093BFF249A46F6E615002100012280
:10091C00D31A1B2B00DD86E79E3132008E40DA4065
:10092C00731E9E413243530704D00F231340042BF4
:10093C0000D00432530110D50123002292E73D0070
:10094C004646824667E7FF2300228BE7802200257C
:10095C00D20386E73D001A4383E792010023520A33
:10096C0080E73D00464677E72A0001237A408B401A
:10097C000320D2B2E9E6C046FFFFFFF770B50028AE
:10098C0012D0C317C5185D40C40F280002F0F6F84A
:10099C009E231B1A962B0FDC082838D0083885406C
:1009AC006D026D0AD8B202E0002400200025C005BB
:1009BC002843E407204370BD992B14DC421F95405B
:1009CC002A001549114055071CD00F252A40042A2E
:1009DC0018D00431CA08490115D59F235202181AA0
:1009EC00550AC0B2E3E705222900121AD1400200D1
:1009FC001B3295402A00551EAA410A430649114054
:100A0C005507E2D1CA085202550AD8B2CFE76D0297
:100A1C006D0A8E30CBE7C046FFFFFFFB10B5041EFE
:100A2C000DD002F0ABF89E231B1A962B0CDC082879
:100A3C0034D0083884406402640AD8B201E0002043
:100A4C000024C005204310BD992B13DC421F944099
:100A5C00144A224061071CD00F212140042918D0D0
:100A6C000432D408520115D59F236402181A640A63
:100A7C00C0B2E6E7020021001B3291400A00511E71
:100A8C008A410521091ACC401443064A22406107C9
:100A9C00E2D1D4086402640AD8B2D2E76402640AD0
:100AAC008E30CEE7FFFFFFFBF0B54F464646D646ED
:100ABC00C0B582B0009001910E034C00CD0F710AAD
:100ACC00009E5F00760F0E43009900920193C900BF
:100ADC00894619037B0D9846019B490ADB0F9C46FE
:100AEC00009B009A5B0F0B434146640DD200611AC8
:100AFC00654500D1A6E0002972DD4746002F00D1E4
:100B0C00DDE0CC4FBC4200D19AE10127382917DC3B
:100B1C0080273F043B431F2900DDDDE12027781AA5
:100B2C001F008740BA461700CF408446380057460E
:100B3C00074360468240CB40501E8241F61A174351
:100B4C004B46DF1BB94580414042361A330200D474
:100B5C00FFE07602760A002E00D13CE1300002F074
:100B6C000DF80300083B20213800CA1AD0409E40E3
:100B7C0002009F4032439C4200DDA6E1181B01306D
:100B8C00091A3E008F40C6407B1E9F4113008B40CC
:100B9C0037431F43C2403B0016000024134300D1CF
:100BAC00DFE17B0700D132E30F233A003B40042BFB
:100BBC0004D03A1DBA42BF417F42F619330200D429
:100BCC0023E39C4B01349C4200D1B4E09A4B640566
:100BDC001E40640D7707D20876021743360BACE043
:100BEC00002900D17EE04146091B002C00D060E1B9
:100BFC0034004846044300D1C9E14C1E012900D100
:100C0C002EE28C4DA94200D124E20127382C11DCB4
:100C1C0021001F2900DD0BE2202437004846641A0E
:100C2C00A740C84007434846A040CE40441EA041C0
:100C3C009B1B0743D71BBA4292415242654644461E
:100C4C009E1A83E7002900DC9CE04746002F67D101
:100C5C001F00174300D1E4E0481E012900D19BE19D
:100C6C00744FB94200D1EBE001270100382811DCA8
:100C7C001F2900DDC7E12027781A1F008446874012
:100C8C001000C840074360468240CB40501E824152
:100C9C00F61817434F444F458041404236183302F3
:100CAC0057D5644B01349C4245D00121624B7A08E4
:100CBC001E4039400A43F7071743760871E71F00B7
:100CCC00174300D1ADE04F1EBC46012900D182E193
:100CDC00584FB94200D190E161460127382900DD17
:100CEC002EE718E7554F611C394200D0D0E0310097
:100CFC0048461F0001431743002C00D03DE100295A
:100D0C0000D1BCE1002F00D0BFE14B460021D80838
:100D1C0077070743F00806034C05360B640D0CE00F
:100D2C00444FBC4200D18BE001273829B2DC80272C
:100D3C003F043B439CE70026002724053443ED0782
:100D4C002C433800210002B0E0BCBA46B146A8469C
:100D5C00F0BD7B0704D00F233B40042B00D028E7C9
:100D6C00F808344B77070743F0089C4200D04AE25E
:100D7C003B00034359D080263603064336032D4CE3
:100D8C00360BDAE7002961D04146091B002C00D153
:100D9C00B9E0284CA04500D1A5E10127382913DC86
:100DAC008024240426431F2900DDC8E120243700B9
:100DBC004846641AA740C84007434846A040CE4066
:100DCC00441EA0419B190743BF18974292415242BF
:100DDC004446D61863E7380001F0D0FE0300183300
:100DEC001F2B00DCBFE63A00083882409C4200DD35
:100DFC0083E01B1B581C1F2800DCB4E117001F3BB1
:100E0C00DF40202805D040231B1A9A40531E9A41DC
:100E1C0017430024002F0AD07B0700D0C4E626001D
:100E2C009EE74B460C00D8089BE70027014C002698
:100E3C0083E7C046FF070000FFFF7FFFFE070000AF
:100E4C004B467707D8080743F00891E7CD4F611C54
:100E5C0039426BD1310048460143002C00D04BE1A4
:100E6C001F001743002900D181E1002F00D14CE76E
:100E7C004A444A458041F61840423618330200D5A0
:100E8C00B0E117009146374300D03EE7002654E707
:100E9C004946891A8846C145BF41F11A7F42C91B90
:100EAC000F0261D447460F4300D1BDE00E00474608
:100EBC0051E6B54CA04500D100E10127382900DDF1
:100ECC00B8E6802424042643A3E6B04EE41A164068
:100EDC007B0700D03FE743E70F001800203FF840A6
:100EEC008446202903D04027791A8B401A43531E7D
:100EFC009A41634617001F4322E6A448E11A1040AA
:100F0C004707C00807E734004846044300D1FAE01D
:100F1C004C1E012900D1D7E09B4FB94200D1E2E031
:100F2C000127382C00DD4FE721003CE7964CA1420D
:100F3C0000D1DDE04A444A458041F318404218187C
:100F4C00C707520817434608520705D00F220C005A
:100F5C003A40042A00D02CE67607FF0837430009F4
:100F6C00D9E600270026E8E64946571ABA429241CC
:100F7C009E1B52426546B61AEDE5002900D0C6E02C
:100F8C00002F67D1802600257F4C3603D5E66546B9
:100F9C000C001E00D008E4E64A444A458041F31890
:100FAC00404218181100030200D496E0774B490810
:100FBC001840C3070B434408490700D129E10F220D
:100FCC001A40042A00D1EAE01F1D9F42B641764226
:100FDC0036190224C4E649468F1AB9458041F61ADF
:100FEC004042361A330206D47307FF0801211F430F
:100FFC00F00890E665460124ABE54B467707D80828
:10100C000743F008B4E60F001800203FF840844670
:10101C00202903D04027791A8B401A43531E9A413A
:10102C00634617001F4335E600250024002684E69E
:10103C000C003500203CE540202905D04024611AE5
:10104C008E404946314389464846411E8841070037
:10105C002F43EFE5D2085F0765461743D80887E6AC
:10106C00171ABA4292419E1B5242B61A3302C1D48D
:10107C007307FF08654601211F43F0084BE6002F5C
:10108C007BD065461E0091463FE6811A8846C145D5
:10109C00A441F11A6442091B80242404214277D014
:1010AC00101A8242924107009E1B5242B61A3743D5
:1010BC0000D0A0E06546002400263EE65F07D2087B
:1010CC0065461743D80853E6811891429241F018AF
:1010DC0052428018030200D568E74707C9080F433E
:1010EC00C008012117E6D2085F071743D8083FE66E
:1010FC000C000026002720E6002956D15F07D208F5
:10110C001743D80834E60C001E00D00829E6C108A5
:10111C0070070143F008002F62D080242403204282
:10112C0007D0DE08264204D165463000D1085B07A3
:10113C0019434F0FC900C9087F070F4318E60C006D
:10114C003000203CE0408446202905D04024611A20
:10115C008E404946314389464846411E8841614686
:10116C0007000F4330E620210027091A0EE51E0068
:10117C00002F00D022E5002458E70025002400268B
:10118C00DBE5C046FE070000FF070000FFFF7FFF06
:10119C0047460F4300D147E70E00C146B5E5DF08CF
:1011AC006407022127430009B5E51900C008770739
:1011BC0007431143F008002900D1D9E58021090328
:1011CC00084207D0DC080C4204D1D2085B071A4352
:1011DC00170020007B0FFF00FF085B071F43C7E5CC
:1011EC000F00C5E5124BD20833405F075B020124A8
:1011FC0017431E0BA1E5264212D00D4B654602008B
:10120C0001241E40E6E4210085E51700A8E53A001C
:10121C00D4E4DB0864071C432700022100097AE5AB
:10122C00C0087707074365460021F00873E5C04600
:10123C00FFFF7FFFF0B5DE46454657464E46E0B50C
:10124C0087B0009201930B031B0B9B46CA0F4B00FC
:10125C00040080465B0D029200D198E07C4A9342D8
:10126C0037D05946420FC9000A4380210904114363
:10127C00C2009046774A894692469A44002300243D
:10128C000393009E019F3B031B0B9B467B0030008E
:10129C005B0DFD0F002B59D06D4A934248D0594637
:1012AC00720FC9000A438021090411438B46694916
:1012BC00F2008C4651466344CB1A9A460021029E9A
:1012CC006E40F6B20F2C00D9CEE0634BA4001B5934
:1012DC009F465A460243914600D090E09A4602231C
:1012EC00904608240393CCE7CB464246029D0399D3
:1012FC00022900D1DEE1032900D18DE0012900D0C3
:10130C0079E12E0000220023002490461B05234384
:10131C00F60733434046190007B0F0BCBB46B24653
:10132C00A946A046F0BD002200249046484BEDE7AC
:10133C005A46009B1A43494B9C46E244002A59D119
:10134C0002231C43002302219B46B8E75A46009B0C
:10135C001A4349D05B46002B00D19CE1584601F062
:10136C000DFC020003000B3A1D27009EBA1A19004F
:10137C005846D64008398840320002439346009ABA
:10138C008A40374953448A4600219A4497E75B4682
:10139C000343994621D05B46002B00D169E15846A6
:1013AC0001F0ECFB0B235B429C4602008444664636
:1013BC001D239B1B260011005846DE40083988402F
:1013CC0033000343994623008B409846254B002459
:1013DC009B1A9A460023039353E7002398469A4698
:1013EC000133042403934CE701231C430023012104
:1013FC009B4664E70323320003211C435FE79A46B4
:10140C000323D9460C2403933BE7002380249846FE
:10141C0000260F4B240379E780245B4624031C43EE
:10142C0024032E0090460A4B240B6FE780244B4676
:10143C002403234202D05B462342F0D080244B4647
:10144C0024031C432403029E014B240B5EE7C0467D
:10145C00FF07000001FCFFFFA098000801F8FFFF48
:10146C00F30300000DFCFFFFCB4500D2F8E000D1E8
:10147C00F3E001235B429C46444648460025E24487
:10148C005B46170E1B021F43190C3B0412020097FC
:10149C001F0C914602910397FEF7B4FE02007A43AB
:1014AC000B04210C804619438A4209D9009F012361
:1014BC00BC465B4261449C46E0448F4200D85CE1F0
:1014CC00881A0299FEF79EFE039A240442430904EB
:1014DC00240C03000C43A24206D90099013B8C4614
:1014EC006444A14200D842E1A01A424612041A43B5
:1014FC0093464B4659461B0C1F0004930B0449465C
:10150C000904090C0C001B0C5C43120C7B43884631
:10151C0051437A43270CBC465B186344994203D968
:10152C00802149028C466244190C24041B04240CAF
:10153C008A181C19904202D316D1A54214D25B46CC
:10154C00009F013B4D4405934D459B41BC465B427E
:10155C006344C018874200D302E1824200D929E1DA
:10156C0000D124E1059B9B462C1BA542AD41009B61
:10157C00801A6D42401B834200D10FE10299FEF7A5
:10158C0041FE039A0B044243210C050019438A4285
:10159C0000D9CBE0881A0299FEF734FE039A240492
:1015AC0042430904240C03000C43A24200D9CAE0B4
:1015BC004146A41A2A041A43049F13041B0C5943D2
:1015CC0040467B439C46150C68430B0C8444634497
:1015DC007D43984203D98020400284466544180C10
:1015EC0009041B04090C40195B18844227D323D02F
:1015FC00012335001A43944B5344002B60DD5107F3
:10160C0000D086E02E00D1085A46D20106D55A46A3
:10161C008E4B1A4080239346DB0053448C4A9342F2
:10162C0000DD80E65A4652070A4390465A465B054F
:10163C005402240B5B0D69E63500002BDBD0009DBA
:10164C00511EAC466444AC4200D29EE0844200D2AF
:10165C00E1E000D1EEE00A00CAE7424500D908E714
:10166C004B46DC07580843465B081C434346DD07E2
:10167C0006E701F083FA15239C4684440200634676
:10168C0020321C2B00DC92E623000838834099465C
:10169C00002398469AE601F071FA02000300153215
:1016AC0020331C2A00DC5FE60099083881400022B8
:1016BC008B4666E600222E0000249046654B25E6FC
:1016CC002E000121C91A382900DD1BE61F297EDCFA
:1016DC006148140050445B4682408340CC40501E0D
:1016EC00824123431A435B46CB40510709D00F215B
:1016FC001140042905D0111D9142924152429B1870
:10170C000A00190200D49BE0002201230024904619
:10171C00FCE50F211140042900D173E7111D914202
:10172C00924152422E00C90893446DE7009B013D43
:10173C009C4661448B4200D92CE78A4200D829E7A9
:10174C00851E614426E70099013B8C466444A14206
:10175C0000D92DE7A24200D82AE7831E644427E76C
:10176C00874200D0FEE6A94500D9FBE6F5E6A24289
:10177C0000D8B9E6831E6444B6E68A4200D89FE6D8
:10178C00BC46831E984661449AE60A00844200D007
:10179C002EE74B4500D02BE735002CE72A4B2F4A80
:1017AC005344924543DB0122002193442CE7AC4285
:1017BC0000D8D7E602235B429C4600994D444D4528
:1017CC009B41E3448C465B426344C018CCE61F202B
:1017DC004042C31A5846D840202904D05946204BC1
:1017EC00534499400A43531E9A410723190002435C
:1017FC0000241140134209D008331340042B1DD090
:10180C00131D934289411A0049424907D2080A43E1
:10181C00904600237AE54946009F4D004D4589418D
:10182C00BC4649426144A946023A6418AEE701221B
:10183C00524246E79945EED30A00AAE70021E5E7B4
:10184C0059075B021C0BE1E7FF030000FFFFFFFEE3
:10185C00FE070000FF0700001E04000002FCFFFF53
:10186C003E040000F0B55746DE464E464546E0B510
:10187C000D000400E80F83460903D80F090B8246BC
:10188C0019488C461F0369005E00490D3F0B760D0D
:10189C00814218D086420FD00120B1420DD1BC45F7
:1018AC000BD1944209D1D3451CD0002905D16046F7
:1018BC002043431E984100E00120F0BCBB46B246D9
:1018CC00A946A046F0BD01208E42F6D161463943AF
:1018DC000F0017432743F0D15B465246981A431E1C
:1018EC009841EAE70020E8E7FF070000F0B557460B
:1018FC004E464546DE46E0B50D000E034900490D47
:10190C008A46DF0FE90FBC4683B02F4F0400804698
:10191C000191580019039146360B090B400DBA453D
:10192C001DD0B8420DD05746002F2AD13443002881
:10193C0024D10A4336D0002C41D1634658000138DB
:10194C0015E0114338D15346002B01D12643F4D076
:10195C00019B634507D1019B5800013807E02643E2
:10196C002AD1504521D00120019B5F42384303B05E
:10197C00F0BCBB46B246A946A046F0BD002CDCD05C
:10198C00E6E70028EFD0019B6345ECD18245EADC09
:10199C00E1DB8E42E7D8DED1C845E4D80020C8454B
:1019AC00E5D2D8E7002CE2D0DDE7114304D1019B4E
:1019BC006345D8D10020DAE702204042D7E7019BEB
:1019CC006345E6D0CFE7C046FF070000F0B55746A9
:1019DC004E464546DE46E0B50D000E034900490D66
:1019EC008A46DF0FE90FBC4683B02E4F04008046B9
:1019FC000191580019039146360B090B400DBA455D
:101A0C001ED0B8420DD05746002F27D134430028A2
:101A1C0033D10A4334D0002C40D1634658000138EE
:101A2C0015E0114312D15346002B01D12643F4D0BB
:101A3C00019B63451DD00120019B5F42384306E0AA
:101A4C00264303D15045F6D111431CD0022003B0DC
:101A5C00F0BCBB46B246A946A046F0BD0028EAD071
:101A6C00019B6345E7D18245E5DC02DB8E42E2D87F
:101A7C000ED0019B58000138E9E7002CCDD0D7E7F8
:101A8C00002CE4D0D7E7019B00206345DFD0D2E7E0
:101A9C00C845D0D80020C845D9D2EAE7019B634598
:101AAC00E4D0C8E7FF070000F0B557464E46DE46C7
:101ABC004546E0B51F000B031B0B16009A46CA0FD8
:101ACC004B000400914685B05B0D00D1CFE1CD4AAF
:101ADC00934255D05146420FC9000A438021090454
:101AEC001143C2009046C84A8A4693469B44002341
:101AFC00002502933C037B00FA0F0196240B5B0D2F
:101B0C00009200D188E1BF4A934200D192E0BE4AD4
:101B1C00944663449B440A2D42DCE400730F234338
:101B2C008024494624041C43F3000193009B0020AD
:101B3C005940CBB20393022D00DC94E00123AB405F
:101B4C001D00A6232A00DB001A401D4200D029E20A
:101B5C0090239B001D4200D14DE200238024994626
:101B6C002403A84B10004A461B052343D2071343FA
:101B7C00190005B0F0BCBB46B246A946A046F0BD64
:101B8C0052460243904600D0ACE19B46022392465B
:101B9C0008250293AEE7009BA2469946019B984606
:101BAC00029B022B00D1CAE1032B00D192E1012B45
:101BBC0010D1002300240022D4E701227B083A40F4
:101BCC0013435246D2071343984653465B089A4632
:101BDC00039B99465B46581C8023DB005B44002B1F
:101BEC0000DCB1E1424652070BD00F2241460A40BD
:101BFC00042A06D04246111D414592418846524264
:101C0C0092445246D20106D55246804B1A4080234C
:101C1C009246DB00C3187E4A934200DD8FE14246B8
:101C2C00D108524652070A4351465B054C02240B1D
:101C3C005B0D97E7734B26439C46E344002E00D183
:101C4C006FE1032349461D43009B5940CBB20393DC
:101C5C000A2D00DD33E10123AB401D000323029369
:101C6C0088222A4297D1424643461204120C16008F
:101C7C0001981D0C030C0004000C4643B4461E00D6
:101C8C006E430096160007005E436146B0466F43F4
:101C9C000E0CB8444644B74205D980214902884607
:101CAC00009F4744009761460904090C370C360421
:101CBC008C463100614401911100260C2404240C43
:101CCC0061438C462100694389466146090C88466C
:101CDC0072434A4442447543914503D980214902D9
:101CEC0088464544110C884661460904090C8C460B
:101CFC0012046244B91802915146090C8C465146A3
:101D0C000F043F0C3900414345448846614641432A
:101D1C008A4641466046090C894658437B435344E6
:101D2C004B449A4503D98021490289464844190CF1
:101D3C00894641460904090C8846390061431B0455
:101D4C004344884661464C4371438C464146774335
:101D5C000E0C3F19F6194844B44203D980214902AC
:101D6C008946CC440299009F894631044F448946E8
:101D7C004146974292410C04240C4C44FF185242A9
:101D8C006419A1189F429B41884682465B42994642
:101D9C0090459241AC42A441C244D1445242644267
:101DAC00144399459B41824592415B4252421343F5
:101DBC004A46360CA419E31863445B02D20D1A434D
:101DCC00019992467A020A43501E8241FF0D174335
:101DDC004A4652021743B846DB0100D5EDE60D4BDF
:101DEC00039A5B449146002B00DCACE03A005207AE
:101DFC0000D110E70F2258463A40042A00D0F9E6E9
:101E0C0009E7C046FF07000001FCFFFFFFFFFFFED4
:101E1C00FE070000FF030000220032436FD0002CAD
:101E2C0000D1C2E0200000F0A9FE020003000B3A32
:101E3C001D20821A30001900D04008398C40020055
:101E4C00224334008C405946CB1A86498B469B441E
:101E5C000A2D00DDA4E64946009B01945940CBB203
:101E6C00140000200393022D00DD67E6FBE65346C9
:101E7C00034398463CD05346002B00D1A3E0504678
:101E8C0000F07CFE0B235B429C4602008444110054
:101E9C005046083988401D23804660461B1A200096
:101EAC00D8400300404603439A4623008B40984693
:101EBC006C4B00259B1A9B46002302931AE60F2DB0
:101ECC0000D0C9E0802352461B031A4202D01C42A8
:101EDC0000D192E08024534624031C432403424641
:101EEC00240B3EE69B46032380460C25029301E619
:101EFC0000239A469B46013304250293FAE50121FF
:101F0C000D430A2D00DD4BE6494600984140C9B20D
:101F1C000391022D00DC96E00023002401200193A4
:101F2C000CE649460223009A2B435140CAB2039255
:101F3C000A2B00DD34E6002D57D1039B9946002473
:101F4C000022494B0EE658460121C91A382900DDFA
:101F5C002FE61F2956DD1F2254465242D31ADC406D
:101F6C00202907D0414B42469C465346604483404F
:101F7C001A43904642460721531E9A410B002243B6
:101F8C0013400024114209D00F231340042B5DD0C1
:101F9C00111D91429B410A005B425B07D2081A4318
:101FAC000023DFE5039B9946FAE5019800F0E6FD76
:101FBC0002000300153220331C2A00DC38E7019A9A
:101FCC00083882403FE700F0D9FD15239C46844435
:101FDC000200634620321C2B00DC58E70023984695
:101FEC002300083883409A4662E71D000023002432
:101FFC0002200193A2E5029032E61C43009B019A59
:10200C009946AEE51A4B5246C31840469A40C84012
:10201C000243404698400300581E834154461A43DD
:10202C00CC40530709D00F231340042B05D0131DAC
:10203C00934292415242A4181A00230208D501235C
:10204C00002400228EE5894600248BE50023A5E7B9
:10205C0063076402240BA1E7009BA2469946019BEF
:10206C00984637E70DFCFFFFFF0700003E04000019
:10207C001E040000F0B557464E464546DE46E0B518
:10208C0083B0009001910C034D00CE0F610A009CAF
:10209C005F00640F0C43009900920193C800190370
:1020AC007B0D9946019BCC4FDB0F9C464B0A00994C
:1020BC008046490F1943009B8B46DA0092466D0D02
:1020CC00B94500D1BFE00123614659404B468C46CF
:1020DC00EB1A8E4275D0002B00DCA3E24946002996
:1020EC0000D1CEE0BD4200D100E20127382B19DC33
:1020FC00802759463F0439438B461F2B00DDFAE1FC
:10210C002027F91A8C4659466746B9400F00110032
:10211C00D9400F4361468A40511E8A415946D940E5
:10212C001743641AC71BB84280414042241A230249
:10213C0000D440E16402640A002C00D154E1200078
:10214C0000F01CFD0300083B20213800CA1AD040C7
:10215C009C4002009F4022439D4200DDA6E1581B9B
:10216C000130091A3C008F40C4407B1E9F41130074
:10217C008B4027431F43C2403B00140000251343F0
:10218C0000D1F7E17B0700D177E30F2338003B4008
:10219C00042B04D0381DB842BF417F42E4192302FE
:1021AC0000D468E38C4B01359D4200D1F4E08B4B9D
:1021BC006D051C406D0D6707C00864020743240BB6
:1021CC00ECE0002B00DC29E34946002900D0D6E0E6
:1021DC005946114300D12EE1591E012B00D1E6E1E5
:1021EC00BB4200D182E101270B00382914DC1F2BE4
:1021FC0000DD3CE22027F91A8C4659466746B94067
:10220C000F001100D9400F4361468A40511E8A418C
:10221C005946D940174364183F18874280414042C1
:10222C002418230200D4C6E06B4B01359D4200D12B
:10223C00B2E00121694B7A081C4039400A43E70798
:10224C00174364089EE7664B11438A46EB18002936
:10225C0028D066452CD0002B5BD0002D00D12CE172
:10226C005B4666465F07D2081743DD083B002B43ED
:10227C0000D1E2E0802424032C432403564D240B8C
:10228C008CE05946114300D1D5E0591E012B00D1E9
:10229C00B9E1BB4200D1B1E101270B00382900DDC7
:1022AC0040E72AE76146012779408C466645D2D142
:1022BC00002B00D1C5E0002D00D055E14B46250088
:1022CC00054300D112E2591E8C46012B00D149E284
:1022DC00414DAB4200D18FE20127382911DC634616
:1022EC001F2B00DD5BE26146202327005B1A0500F3
:1022FC0098409F40CD40431E9841CC402F4307430C
:10230C00A344BF189742924152425A4414004D467E
:10231C0087E7344F6B1C3B4200D0B6E05946230094
:10232C0011430F000343002D00D026E1002B00D1F8
:10233C00C0E1002900D1A1E0831A98465B464045D4
:10234C00AD41E31A6D425B1B80252D042B4200D15D
:10235C004BE15B46101A824292411C1B070001267E
:10236C0063465242A41A27431E40002F00D142E17B
:10237C002C4200D16DE2194B01251C401BE7BD42DC
:10238C0000D13BE10127382B00DD45E7802759467A
:10239C003F0439438B462AE7002400272D052543AB
:1023AC00F60735433800290003B0F0BCBB46B246F3
:1023BC00A946A046F0BD7B0704D00F233B40042B5D
:1023CC0000D0E7E62B00F808034A67070743E50847
:1023DC00934200D14AE7A5E0FF070000FFFF7FFF13
:1023EC0001F8FFFFFE070000380000F0C7FB0300F8
:1023FC0018331F2B00DCA7E63A00083882409D42B8
:10240C0000DD8AE05B1B581C1F2800DCD8E117009C
:10241C001F3BDF40202805D040231B1A9A40531E37
:10242C009A4117430025002F00D1E5E07B0700D02F
:10243C00ABE62C00C6E7C008C6E700270024D14D48
:10244C00ACE7D14F6B1C3B4271D123000343002DF1
:10245C0000D04EE15746002B00D1B5E1002F0DD036
:10246C008318834280415C4440422418220200D5E8
:10247C00C8E11F009846274300D1BCE043466707DC
:10248C00DB081F43E50800234CE0831A98465B46A3
:10249C004045BF41E31A7F42DB1B1F027CD44746F9
:1024AC001F4300D1A6E01C00474645E6B74CED1A89
:1024BC0014407B0700D080E784E74B46250005439A
:1024CC0066D05F1E012B00D1FCE0AE4DAB4200D1BB
:1024DC005EE16646382F00DCB4E00120171ABA42E0
:1024EC0092415B4652424D469C1A20E66707C00853
:1024FC000743E508BAE61F005946203FF9400F0094
:10250C00202B05D04021CB1A594699400A439246BC
:10251C0053465A1E93411F4304E6EB1A9B4D15403C
:10252C006F07ED082C035D05240B6D0D36E7954DFB
:10253C00AB4200D1D6E0821821008242804159443E
:10254C0040420818C707520817434408520700D4E2
:10255C0085E10F221D003A40042A00D01AE6FF083C
:10256C00640727430509DDE75B46D2085F0717437D
:10257C00DD087BE60027002410E7002B00D0D6E016
:10258C00002900D02FE1802400267E4D240305E78E
:10259C0066465C46D00817E75B46171ABA4292416A
:1025AC001C1B012663465242A41A1E40C4E5831824
:1025BC00834280415C44404225182A0200D4DAE070
:1025CC00724A5B081540EA071A4369085B0700D496
:1025DC004AE10F231340042B00D1FCE0171D974256
:1025EC00A441644202256418ECE647461C001F43D4
:1025FC0000D043E7002600250024CFE6C00867077B
:10260C000743E50832E6871A5B46B8428041E41A74
:10261C004042241A230228D46307FF081F43E5080D
:10262C0001237FE7002B00D173E64B465F1B3B0079
:10263C00002D00D142E7382F00DDECE080230E00A6
:10264C001B041C431F2F25DC20252300ED1B010040
:10265C00A840AB40F940451EA8410B43FC40184331
:10266C005B461B1B9B4639E76646012562E51F004E
:10267C005946203FF9408C46202B05D0402759461F
:10268C00FB1A99400A43924657467B1E9F4163466C
:10269C001F43C1E53B002500203BDD40202F04D02B
:1026AC004023DB1B9C40204380464046431E984100
:1026BC00284313E700299DD0012663465C469046CB
:1026CC001E40DBE6171A5B46BA4292411C1B524273
:1026DC00A41A2302C8D46307FF081F4366460123CC
:1026EC00E5081FE71D000024002757E65C46D008CC
:1026FC006AE6002B00D137E75346C008670707434B
:10270C00E508002B00D1B1E580231B031D4208D046
:10271C005946C808184204D1D20849070A43170081
:10272C0005007B0FFF00FF085B071F439EE5C008F9
:10273C0063071843E508002953D080231B031D426F
:10274C000AD05946CC081C4206D101266346250006
:10275C00D008490708431E40470FC000C0087F0738
:10276C00074383E58318934292415C445242A51877
:10277C002A0200D524E76F07DB081F43ED0801236D
:10278C00D0E6C046FF070000FE070000FFFF7FFFFA
:10279C005B46D2085F0766461743DD0866E52500F1
:1027AC00203BDD406346202B05D0402361465B1A5D
:1027BC009C402043804647467B1E9F412F43A0E50B
:1027CC0020210027091AD2E4002F00D113E75C4620
:1027DC0017000025F6E5D708490702230F432D09FA
:1027EC00A0E6070042E55B4601265F07DD0863466D
:1027FC00D20817431E4039E55B46D2085F071743E2
:10280C00DD0833E51E4ADB0822405707520201253A
:10281C001F43140BC2E50E0001205FE6002B0DD008
:10282C004B465B1B9C46002D00D148E50127382BFD
:10283C0000DD66E580231B041C4350E56B1C114D29
:10284C002B4200D073E65946230011438A460343BA
:10285C0000E66707C00800230743E50862E6640743
:10286C00FF08274305095DE6D208490711430F000D
:10287C0002232D0956E60700A4E538008FE4C04674
:10288C00FFFF7FFFFE070000F0B5C6461E03360BA8
:10289C00B0460D4E0C034D005F0000B5240B6D0DC2
:1028AC007F0DB5420BD0084900208F4204D146461B
:1028BC0016433000431E984180BCB846F0BD04431B
:1028CC000120002CF8D1EEE7FF0700000B000200FE
:1028DC0070B5164D0C0382B0490000200092019394
:1028EC00240B490DDE0FA94204DD1148814203DDA2
:1028FC00104BF01802B070BD8020400320430E4CEA
:10290C00641A1F2C08DD0D4B5B1AD840030058428B
:10291C00002EEFD11800EDE7094B009A9C460300FE
:10292C0061448B40E2401343F1E7C046FE030000D4
:10293C001D040000FFFFFF7F3304000013040000A0
:10294C00EDFBFFFF70B5002816D0C317C5185D400E
:10295C00C40F280000F012F9104B1B1A5B055B0D1D
:10296C000A2814DC02002E00153296400B22121A93
:10297C00D5402D032D0B03E0002400230025002659
:10298C001B052B43E40723433000190070BD0B38A3
:10299C0085402D0300262D0BF2E7C0461E040000D7
:1029AC0010B5041E10D000F0E9F80E4B1B1A5B0595
:1029BC005B0D0A280FDC0B222100121AD1401530B6
:1029CC000A038440120B01E0002300221B05134371
:1029DC002000190010BD22000B3882401203002485
:1029EC00120BF3E71E04000070B542024300C40F43
:1029FC00FE201B0E591C550A08420CD0E021890000
:102A0C008C466D07120B63441B051343E4072343E9
:102A1C002800190070BD002B14D1002D1BD02800EC
:102A2C0000F0ACF80A281CDC0B232A001B1ADA4035
:102A3C00030015339D400E4B12031B1A5B05120B42
:102A4C005B0DE1E7002D09D0130B802212031A4312
:102A5C006D07084BD8E700230022D5E70022054B71
:102A6C00D2E703002A000B3B9A400025E3E7C0465F
:102A7C0089030000FF070000F0B54B000F035B0D4E
:102A8C003A4C450F83B07F0A5E1C2F430090019196
:102A9C00CA0FC50026420BD035495C18FE2C13DD3D
:102AAC00FF200023C0051843D207104303B0F0BD2C
:102ABC003D43002B01D10020F4E7002DF0D0802302
:102ACC00DB03FF203B43EDE7002C0CDD009BFF00FC
:102ADC009B01581E8341690F3B430B43590727D178
:102AEC00DB08E0B2DEE72100173131DB80211E204C
:102AFC0009043943001B1F282DDD02267642341BA6
:102B0C000E00E6403400202804D01A488446634462
:102B1C0099400D432B00591E8B412343590703D079
:102B2C000F21194004290BD19B0100205B0AB9E746
:102B3C000F211940042904D19B015B0AE0B2B1E7D3
:102B4C00002404335901F7D501340023E0B2A9E77E
:102B5C0000200023A6E7084C1C192B00A540C340FD
:102B6C00A140681E854129430B43D7E7FE070000AF
:102B7C0080FCFFFFA2FCFFFF82FCFFFF1C21012356
:102B8C001B04984201D3000C10391B0A984201D344
:102B9C00000A08391B09984201D30009043902A222
:102BAC00105C40187047C046040302020101010189
:102BBC00000000000000000080B584B000AF786019
:102BCC0039600023FB6020E07B681A68134BF968BE
:102BDC008900CB589A4215D17B685A688023DB0553
:102BEC009A420FD17B68DA6880231B039A4209D181
:102BFC000A4BFA689200D3583A681100180000F09A
:102C0C000FF806E0FB680133FB60FB68312BDBDD62
:102C1C00C046C046BD4604B080BDC046E098000822
:102C2C0090B585B000AF786039607B68E34A934219
:102C3C0000D1E3E27B68E14A934200D9E5E27B688C
:102C4C00DF4A934200D192E27B68DD4A934200D97D
:102C5C00DBE27B68DB4A934200D17EE27B68D94A97
:102C6C00934200D9D1E27B68D74A934200D146E225
:102C7C007B68D54A934200D9C7E27B68D34A93421A
:102C8C0000D12DE27B68D14A934200D9BDE27B682A
:102C9C00CF4A934200D1F3E17B68CD4A934200D9ED
:102CAC00B3E27B68CB4A934200D157E17B68C94AB7
:102CBC00934200D9A9E27B68C74A934200D1F5E060
:102CCC007B68C54A934200D99FE27B68C34A934212
:102CDC0005D07B68C24A934200D18CE095E23B68F8
:102CEC001B781B029AB2BF4B1A803B6801331B78CE
:102CFC001A00BD4B1A80BB4B1B881A00BA4B1B88A1
:102D0C00D3181800FFF71EFEB84AB94BFEF7CCFEDD
:102D1C0002000B0010001900FFF7AEFE021CB54BB1
:102D2C001A603B6802331B781A000C243B19120200
:102D3C001A803B6803331B7819003B193A19128827
:102D4C000A431A803B191B881800FFF7FBFDA74AA2
:102D5C00A74BFEF7A9FE02000B0010001900FFF7AD
:102D6C008BFE021CA44B1A603B6804331A783B1987
:102D7C001A803B191B881800FFF7E4FD9F4AA04BF3
:102D8C00FEF792FE02000B0010001900FFF774FE14
:102D9C00021C9C4B1A603B6805331A783B191A804D
:102DAC003B191B881800FDF739FE021C964B1A6064
:102DBC003B6806331B781A003B1912021A803B68D9
:102DCC0007331B7819003B193A1912880A431A80E9
:102DDC003B191B881800FFF7B5FD884A8B4BFEF793
:102DEC0063FE02000B0010001900FFF745FE021CE9
:102DFC00874B1A6009E23B681B781B029AB2854B21
:102E0C001A803B6801331B781A00834B1A80814B64
:102E1C001B881A00804B1B88D3181800FFF792FDF3
:102E2C00764A7A4BFEF740FE02000B0010001900A8
:102E3C00FFF722FE021C794B1A603B6802331B78A9
:102E4C001B029AB2764B1A803B6803331B781A002C
:102E5C00744B1A80724B1B881A00724B1B88D31848
:102E6C001800FFF76FFD654A684BFEF71DFE020068
:102E7C000B0010001900FFF7FFFD021C6A4B1A60D3
:102E8C003B6804331B781B029AB2684B1A803B6870
:102E9C0005331B781A00664B1A80644B1A88644BF6
:102EAC001B88D3189AB2634B1A80AEE13B681B782F
:102EBC001A00614B1A80604B1B881800FDF7AEFDA1
:102ECC00021C5E4B1A603B6801331B781A005C4B8A
:102EDC001A805B4B1B881800FDF7A0FD021C594B98
:102EEC001A603B6802331B781A00574B1A80564BFA
:102EFC001B881B029AB2544B1A803B6803331B7815
:102F0C001A00524B1A80504B1B881A004F4B1B88CF
:102F1C00D3181800FDF732FD021C4D4B1A603B68AC
:102F2C0004331B781A004B4B1A804A4B1B881B022C
:102F3C009AB2484B1A803B6805331B781A00464BF3
:102F4C001A80444B1B881A00434B1B88D31818005B
:102F5C00FDF714FD021C414B1A6056E13B681B78CF
:102F6C001A003F4B1A803B6801331B781A003D4B0B
:102F7C001A803B6802331B781A003B4B1A803B6863
:102F8C0003331B781A00394B1A803B6804331B78C7
:102F9C001A00374B1A803B6805331B781A00354BE7
:102FAC001A803B6806331B781A00334B1A803B6837
:102FBC0007331B781A00314B1A8026E1F4A2FF1854
:102FCC00F428FF18F4E2F118F410F118F401F118D8
:102FDC00F4FEF018F4FDF018F4EF1418F4FF0018D8
:102FEC00F4E506181C0300201E030020FCA9F1D2F6
:102FFC004D62503F20030020240300209A99999998
:10300C009999D93F280300202C0300209999B93FA6
:10301C00300300203403002036030020440300203A
:10302C00380300203A030020480300203C03002012
:10303C003E030020400300204C03002058030020D6
:10304C004E0300205C03002050030020520300209C
:10305C00600300205403002056030020640300206A
:10306C00680300206A0300206C0300206E0300201C
:10307C0070030020720300207403002076030020EC
:10308C003B681B781A00634B1A803B6801331B7832
:10309C001A00614B1A803B6802331B781A005F4B95
:1030AC001A803B6803331B781A005D4B1A803B680F
:1030BC0004331B781A005B4B1A803B6805331B7872
:1030CC001A00594B1A803B6806331B781A00574B71
:1030DC001A803B6807331B781A00554B1A8094E012
:1030EC003B6804331B781A00524B1A80514B1B88D7
:1030FC001800FDF793FC021C4F4B1A6085E03B68EF
:10310C001B781A004D4B1A803B6801331B781A0050
:10311C004B4B1A804A4B1B881B029AB2484B1A80A5
:10312C003B6802331B781A00464B1A80444B1B88B1
:10313C001A00444B1B88D3181800FDF71FFC021C07
:10314C00414B1A603B6803331B781A003F4B1A80C3
:10315C003E4B1A883E4B1A8057E03B681B781A008E
:10316C003C4B1A803B4B1A883B4B1A804DE03B681A
:10317C001B781A00394B1A80384B1B881800FDF746
:10318C004DFC021C364B1A603B6801331B781A004D
:10319C000E243B1912021A803B6802331B7819006B
:1031AC003B193A1912880A431A803B191B881800DC
:1031BC00FDF734FC021C2B4B1A603B6803331B7865
:1031CC001A00294B1A803B6804331B781A00274BD2
:1031DC001A803B6805331B781A003B1912021A80BF
:1031EC003B6806331B7819003B193A1912880A43BD
:1031FC001A801F4B3A1912881A8006E03B68043378
:10320C001B781A001B4B1A80C046C046BD4605B041
:10321C0090BDC046780300207A0300207C03002078
:10322C007E03002080030020820300208403002002
:10323C0086030020880300208C03002090030020CC
:10324C0092030020940300209C030020960300208E
:10325C0098030020A0030020A2030020A403002058
:10326C00AC030020B0030020A6030020A80300201C
:10327C00AA030020B403002080B582B000AF7860B0
:10328C00044B1B780133DAB2024B1A70C046BD46B0
:10329C0002B080BD2504002080B500AF01F0AAF972
:1032AC0000F0C8FB00F0F2F8094B01221A7000F094
:1032BC006DF900F0E7F900F03FFA00F0A7FA00F022
:1032CC00FBFA00F007F8642001F01AFAC046EEE7AA
:1032DC002404002080B500AF224B1B78012B30D189
:1032EC00214B1A68FA231B019A4205D21F4B1B680B
:1032FC00180000F0EFF81DE01B4B1A68FA231B01B5
:10330C009A420ED9184B1A68FA235B019A4208D2DA
:10331C00164BC8221A60154B1B68180000F0DAF81F
:10332C0008E0134B01220121180003F033FA0D4B76
:10333C0003221A70C8235A000E4B1100180000F01B
:10334C00E3F8084B1B78032B02D0042B03D005E0C9
:10335C0000F012F802E000F077F8C046C046BD4617
:10336C0080BDC046240400202C0400202004002032
:10337C0000040050FD34000880B500AF0CE02B4B6E
:10338C001B685A1E294B1A60284B1B68180000F04A
:10339C00A1F8962001F0B4F9244B1B68002BEED158
:1033AC00234B180001F0ACF9224B0022012118002C
:1033BC0003F0F0F91D4BC8221A601C4B1B68180057
:1033CC0000F088F800F0E2F800F05CF900F0B4F9D5
:1033DC00194B1B68194A934206D9194B04221A70CF
:1033EC00184B00221A701FE0114B180001F088F9DD
:1033FC00104B01220121180003F0CCF9114B1B7862
:10340C000133DAB20F4B1A700E4B1B78092B0BD908
:10341C00084B00220121180003F0BCF9084B0722CD
:10342C001A70084B00221A70BD4680BD2004002083
:10343C001027000000040050100400202F7500001D
:10344C00240400202604002080B500AF0D4B01227F
:10345C000121180003F09EF90CE00B4B1B685A1E5F
:10346C00094B1A60084B1B68180000F033F89620C3
:10347C0001F046F9044B1B68002BEED1C046C04648
:10348C00BD4680BD000400502004002080B500AF74
:10349C0000F00CFD00F02EFB00F078FB00F0A6FD18
:1034AC00094B180002F023FC00F082FC074B1800BB
:1034BC0004F066F900F0B2FB054B0021180004F093
:1034CC0021FAC046BD4680BDEC0000209C010020C6
:1034DC005001002080B582B000AF7860034B7A6851
:1034EC005A63C046BD4602B080BDC046002C0140A8
:1034FC0080B500AF034B2021180003F068F9C046DB
:10350C00BD4680BD0004005080B584B000AF78602B
:10351C00396001F0EBF80300FB60C04601F0E6F8FF
:10352C000200FB68D31A3A689A42F7D87B68002BE2
:10353C0001D07B689847C046BD4604B080BD0000F2
:10354C0090B587B000AF78600C243B1918000C23A1
:10355C001A00002105F033FF3B197A681A603B19F9
:10356C0000225A603B1900229A603A19064B11004E
:10357C00180001F025FD031E01D000F0CBFDC04664
:10358C00BD4607B090BDC0468800002080B500AF96
:10359C000120FFF7D5FF354B180001F0E7FBFA23AC
:1035AC009A00324B1100180001F06AFC2F4B1800E6
:1035BC0001F0FAFC02002E4B1A602C4B180001F0A3
:1035CC0023FC2C4B1800FFF7BBFF284B180001F015
:1035DC00CDFBFA239A00254B1100180001F050FC8A
:1035EC00224B180001F0E0FC0200214B5A60204BEA
:1035FC005A68214B1A601D4B180001F005FC1F4B3B
:10360C001800FFF79DFF194B180001F0AFFBFA23D0
:10361C009A00164B1100180001F032FC134B1800E5
:10362C0001F0C2FC0200124B9A60104B180001F022
:10363C00EBFB134B1800FFF783FF0C4B180001F04A
:10364C0095FBFA239A00094B1100180001F018FCA5
:10365C00064B180001F0A8FC0200054BDA60034B86
:10366C00180001F0D1FBC046BD4680BD880000208B
:10367C000004002002000004E00300200400000805
:10368C000800000C80B500AF244B1A68244B1A605C
:10369C00234B1B68234A1900022000F05AFF02003A
:1036AC001F4B1A601E4B1B681800FFF779F900229C
:1036BC001D4BFEF7F9F902000B0010001900FCF786
:1036CC00CFFE0200164B1A60154B1B68192118000F
:1036DC00FCF712FD03001A00144B1B68D3181A00D8
:1036EC00124B1A60124B1B685A1C114B1A60104B70
:1036FC001B681E2B0FDD0D4B1B681E211800FCF7E1
:10370C0085FD03001A000B4B1A60094B00221A604E
:10371C00064B00221A60C046BD4680BD0004002046
:10372C0028040020C003002000C04840C40300202F
:10373C00C80300201004002080B500AF2A4B1A6883
:10374C00B923DB009A4212D9274B1A68274B1B6806
:10375C009A4204D9244B1A68244B1A600AE0234B72
:10376C001A68234B1B68D21A224B1A6002E01F4BBB
:10377C0000221A60204B1B68322B25D91F4B1B686B
:10378C001A001D4B1B6819001000FCF7B5FC030058
:10379C001A001A4B1A60194B1B681800FFF7D2F865
:1037AC00174A184BFEF780F902000B0010001900A5
:1037BC00FCF756FE0200144B1A60104B00221A60E4
:1037CC000D4B00221A600CE00A4B1A680B4B1B685D
:1037DC00D3181A00094B1A60074B1B685A1C064B6E
:1037EC001A60C046BD4680BDE0030020D80300200F
:1037FC0000000020D4030020E4030020BC030020C0
:10380C0066F7E461A1D6CC3F1404002080B500AF6C
:10381C00224B1B68462B30D9214B1B681A001F4BBF
:10382C001B6819001000FCF767FC03001A001D4B05
:10383C001A601C4B1A681C4B1B68D218194B1A6067
:10384C00184B1A68194B1B7819001000FCF754FC24
:10385C0003001A00134B1A60124B1B681A00124B10
:10386C001A60104B1B68DA00114B1A600C4B0022CB
:10387C001A600A4B00221A600CE00E4BDA68084BF7
:10388C001B68D3181A00064B1A60044B1B685A1C91
:10389C00024B1A60C046BD4680BDC046DC0300200A
:1038AC00CC030020E8030020D003002004000020FB
:1038BC001804002000040020B0B582B000AF4D4BBE
:1038CC009B681800FFF76CF84B4A4C4BFEF7ECF872
:1038DC0002000B0010001900FFF7CEF8021C484B39
:1038EC001A60474B1B684749181CFCF7EDFE031C7C
:1038FC00181CFFF779F804000D00414B1B68181CCD
:10390C00FFF772F802000B003B483F49FEF7B2FB91
:10391C0002000B0020002900FDF78CFC02000B00BC
:10392C0010001900FFF7A8F8021C384B1A60374B2F
:10393C001B683749181CFCF7B1FD031C1A1C354BCE
:10394C001A60354B1B68191CFE208005FCF7A6FD80
:10395C00031C181CFFF748F804000D002D4B1B68C6
:10396C00181CFFF741F802000B001000190005F0BD
:10397C0059FD38607960294B1B681800FFF710F867
:10398C0002000B0038687968FDF754FC02000B004C
:10399C0020002900FDF788F802000B0000202049C8
:1039AC00FDF748FC02000B0010001900FEF78EFF1B
:1039BC0002001C4B1A601B4B1B681800FEF7C2FF61
:1039CC000D4A194BFEF756FB02000B0010001900B4
:1039DC000022164BFDF768F802000B0010001900CE
:1039EC00FCF73EFD0200124B1A60C046BD4602B009
:1039FC00B0BDC046000400206666666666664A3F37
:103A0C00F00300200000FA4466660A40EC03002034
:103A1C0000401C46F80300200C0000200800002089
:103A2C000000F03FF40300206612714000002240B9
:103A3C001C04002090B595B000AF14243B1918005D
:103A4C003C231A00002105F0BAFC3B1D1800102382
:103A5C001A00002105F0B3FC80239B00180002F033
:103A6C00D1FE3B1902221A603B1980225200DA6007
:103A7C0021007B1800221A617B1840225A617B18A6
:103A8C0002221A627B1802225A627B1800229A6266
:103A9C007B180822DA627B18802292021A637B1848
:103AAC00C022D2045A637B18802292059A637B1839
:103ABC00180002F0E7FE031E01D000F02BFB3B1DAB
:103ACC0007221A603B1D02225A603B1D8022120104
:103ADC009A603B1D0022DA603B1D0121180003F0A7
:103AEC0031FA031E01D000F015FBC046BD4615B0DF
:103AFC0090BD000080B500AF224B234A1A60214BC9
:103B0C008022D2055A601F4B00229A601D4B002266
:103B1C00DA601C4B802292031A611A4B04225A6100
:103B2C00184B00221A76174B00225A76154B01229D
:103B3C009A76144B0122DA61124B00225A62114B15
:103B4C0000229A620F4B2C22002199540D4B00221B
:103B5C001A630C4B00225A630A4B00229A63094BDE
:103B6C003C2200219954074B0022DA64054B1800C3
:103B7C0000F054FF031E01D000F0CCFAC046BD4645
:103B8C0080BDC046880000200024014080B500AFF5
:103B9C00204B214A1A601F4B00225A601D4B0022F9
:103BAC009A601C4B0022DA601A4B01221A74194BD2
:103BBC0001225A74174B00229A74164B02225A6136
:103BCC00144B10229A61134B2F22DA61114B1022E5
:103BDC001A62104B01225A620E4B04229A620D4B50
:103BEC000522DA620B4B04221A630A4B00225A6339
:103BFC00084B01229A63074B0022DA63054B18002D
:103C0C0001F082FE031E01D000F084FAC046BD46CE
:103C1C0080BDC046EC0000200064004080B59CB024
:103C2C0000AF6023FB18180010231A00002105F0C8
:103C3C00C6FB5423FB1818000C231A00002105F0B6
:103C4C00BEFB3823FB1818001C231A00002105F0BA
:103C5C00B6FB3B1D180034231A00002105F0AFFB06
:103C6C00514B524A1A60504B40225A604E4B002224
:103C7C009A604D4BC822DA604B4B00221A614A4BBA
:103C8C0000225A61484B80229A61474B180003F07E
:103C9C001FFD031E01D000F03DFA60217B1880222D
:103CAC0052011A607A18404B1100180004F04CF9BC
:103CBC00031E01D000F02EFA3B4B180003F0C2FD9E
:103CCC00031E01D000F026FA54217B1800221A6042
:103CDC007B1800225A607B1800229A607A18324BAB
:103CEC001100180004F034FE031E01D000F012FA8B
:103CFC0038217B1860221A607B1800225A607B18CE
:103D0C0000229A607B180022DA607B1800221A616C
:103D1C007B1800225A617B1800229A617918224B79
:103D2C000022180004F010F8031E01D000F0F2F984
:103D3C003B1D00221A603B1D00225A603B1D0022D5
:103D4C009A603B1D0022DA603B1D00221A613B1D6C
:103D5C00802292015A613B1D00229A613B1D002278
:103D6C00DA613B1D00221A623B1D802292045A62CA
:103D7C003B1D00229A623B1D0022DA623B1D002291
:103D8C001A633A1D084B1100180004F057FE031E6D
:103D9C0001D000F0BFF9044B180000F01BFBC0462B
:103DAC00BD461CB080BDC04650010020002C014017
:103DBC0080B58EB000AF2823FB18180010231A0012
:103DCC00002105F0FCFA1C23FB1818000C231A0028
:103DDC00002105F0F4FA3B0018001C231A00002106
:103DEC0005F0EDFA2F4B304A1A602E4B17225A6011
:103DFC002C4B00229A602B4B6322DA60294B002259
:103E0C001A61284B80229A61264B180003F060FC43
:103E1C00031E01D000F07EF928217B18802252016C
:103E2C001A607A181F4B1100180004F08DF8031E4D
:103E3C0001D000F06FF91B4B180003F003FD031EBB
:103E4C0001D000F067F91C217B1800221A607B1846
:103E5C0000229A607A18134B1100180004F078FDB8
:103E6C00031E01D000F056F93B0060221A603B00A3
:103E7C0000225A603B0000229A603B0000221A612B
:103E8C003900084B0C22180003F05EFF031E01D012
:103E9C0000F040F9034B180000F09CFAC046BD46F8
:103EAC000EB080BD9C0100200004004090B589B08C
:103EBC0000AF0C243B19180014231A00002105F044
:103ECC007EFA444B5A6B434B04210A435A63414BD1
:103EDC005B6B04221340BB60BB683E4B5A6B3D4B83
:103EEC0001210A435A633B4B5B6B012213407B60FD
:103EFC007B68384B5A6B374B02210A435A63354B5C
:103F0C005B6B022213403B603B68C0231B023248B0
:103F1C000022190002F03EFC3049A023DB050022F0
:103F2C00180002F037FC2E492E4B0022180002F02C
:103F3C0031FC3B19C02212021A603B1901225A6053
:103F4C003B1901229A603B190022DA603B19224A84
:103F5C001900100002F0B2FA3B1920221A603B192A
:103F6C0001225A603B1900229A603B190022DA6048
:103F7C003A19A023DB051100180002F09FFA3B1937
:103F8C00194A1A603B1901225A603B1901229A60A6
:103F9C003B190022DA603A19A023DB051100180046
:103FAC0002F08CFA21007B180D4A1A607B18012252
:103FBC005A607B1801229A607B180022DA607B1809
:103FCC00084A1900100002F079FAC046BD4609B043
:103FDC0090BDC0460010024000080050A0800000B8
:103FEC00F1030000000400508080000080B588B010
:103FFC0002AF3B008022D2051A603B0000225A60BF
:10400C003B0002229A603B000122DA603B00002256
:10401C001A613B0000225A613A00244B110018002F
:10402C0001F0D8FD031E01D000F074F81F480023E6
:10403C00009300230222022101F029FE031E01D06D
:10404C0000F068F8194B180001F051FE031E01D066
:10405C0000F060F8154B00220121180001F050FF10
:10406C00031E01D000F056F8114B124A1A60104B87
:10407C008022D2055A600E4B00229A600C4B802293
:10408C001203DA600A4B00221A61094B00225A61B2
:10409C00074B00229A61064B0022DA61044B002286
:1040AC001A62C046BD4606B080BDC046EC0000207A
:1040BC00F8020020E550FF1880B582B000AF7860A0
:1040CC0039603B680122134018D00E4B0E4A7868B9
:1040DC00402101F033FE031E01D000F01BF8094A09
:1040EC00094B11001800FEF767FD084B1B880133C4
:1040FC009AB2064B1A80064B01221A70C046BD4676
:10410C0002B080BDF0020020C8020020B6030020DF
:10411C00FC03002080B500AF72B6C046C046FDE778
:10412C0080B582B000AF0F4B1A6C0E4B01210A43C5
:10413C001A640C4B1B6C012213407B607B68094B8F
:10414C00DA6B084B802149050A43DA63054BDA6BBD
:10415C0080235B0513403B603B68C046BD4602B004
:10416C0080BDC0460010024090B59DB000AF786095
:10417C005C23FB18180014231A00002105F01FF90A
:10418C0010243B1918004C231A00002105F017F9D4
:10419C007B681B68204A934239D13B198022D2019B
:1041AC001A603B1900221A633B19180003F054F8EB
:1041BC00031E01D0FFF7AEFF184B1A6C174B802172
:1041CC0049030A431A64154B1A6C80235B03134092
:1041DC00FB60FB68114B5A6B104B01210A435A636D
:1041EC000E4B5B6B01221340BB60BB685C217B18E0
:1041FC005F221A607B1803225A607B1800229A6097
:10420C007A18A023DB051100180002F057F9C046FC
:10421C00BD461DB090BDC0460024014000100240B8
:10422C0090B59DB000AF78605C23FB181800142388
:10423C001A00002105F0C3F810243B1918004C2378
:10424C001A00002105F0BBF87B681B68284A9342D2
:10425C0049D13B19802292041A603B1980225200EA
:10426C009A643B19180002F0F7FF031E01D0FFF708
:10427C0051FF204BDA6B1F4B802149010A43DA6353
:10428C001C4BDA6B80235B011340FB60FB68194B02
:10429C005A6B184B01210A435A63164B5B6B012274
:1042AC001340BB60BB685C217B18C02252011A60B2
:1042BC007B1802225A607B1800229A607B1800221D
:1042CC00DA607B1803221A617A18A023DB0511002F
:1042DC00180002F0F3F800220021152001F01AFA60
:1042EC00152001F02CFAC046BD461DB090BDC0464D
:1042FC00006400400010024090B599B000AF7860A7
:10430C0014243B1918004C231A00002105F057F80F
:10431C007B681B682B4A93421DD13B198022920368
:10432C001A603B1900229A633B19180002F094FFA3
:10433C00031E01D0FFF7EEFE234B1A6C224B80219B
:10434C0009010A431A64204B1A6C80231B01134089
:10435C003B613B6932E07B681B681C4A934214D179
:10436C00194BDA6B184B02210A43DA63164BDB6BE1
:10437C0002221340FB60FB6800220021102001F098
:10438C00C9F9102001F0DBF918E07B681B68104AB2
:10439C00934213D10C4BDA6B0B4B10210A43DA63AB
:1043AC00094BDB6B10221340BB60BB680022002161
:1043BC00112001F0AFF9112001F0C1F9C046BD4642
:1043CC0019B090BD002C01400010024000040040C8
:1043DC000010004090B58BB000AF786014243B19EE
:1043EC00180014231A00002104F0E9FF7B681B68F5
:1043FC00294A934224D1294B5A6B284B01210A4359
:10440C005A63264B5B6B012213403B613B693B19A2
:10441C00A022D2001A6021007B1802225A607B185D
:10442C0000229A607B180022DA607B1802221A6143
:10443C007A18A023DB051100180002F03FF826E0E3
:10444C007B681B68164A934221D1144B5A6B134B51
:10445C0002210A435A63114B5B6B02221340FB602F
:10446C00FB6814217B1802221A607B1802225A6006
:10447C007B1800229A607B180022DA607B180122DC
:10448C001A617B18074A1900100002F017F8C04691
:10449C00BD460BB090BDC046002C01400010024040
:1044AC00000400400004005080B500AFC046FDE79A
:1044BC0080B500AFC046FDE780B500AFC046BD4635
:1044CC0080BD80B500AFC046BD4680BD80B500AF95
:1044DC0000F0FAF8C046BD4680BD000080B500AFC4
:1044EC00054B180003F0FEFA044B1B685A1C034BD7
:1044FC001A60C046BD4680BD9C010020B803002058
:10450C0080B500AF034B180003F0ECFAC046BD4673
:10451C0080BDC046E801002080B500AF034B1800F9
:10452C0001F0C4FDC046BD4680BDC046EC00002075
:10453C0080B500AF034B180004F03EFBC046BD46EF
:10454C0080BDC0463402002080B500AFC046BD46D9
:10455C0080BD80B584B000AFB9607A600F217B1844
:10456C00021C1A707B181B78BA685A437B181B788C
:10457C000A21CB1A19007B681B684B43D318BB600C
:10458C00BB6805330A211800FBF7B6FD0300BB60BE
:10459C007B68BA681A60BB681800BD4604B080BD61
:1045AC000D488546FFF7D0FF0C480D490D4A0023F6
:1045BC0002E0D458C4500433C4188C42F9D30A4ACC
:1045CC000A4C002301E013600432A242FBD304F036
:1045DC0005FFFEF761FEFEE7004002200000002010
:1045EC006C000020B89900086C00002068050020C1
:1045FC00FEE7000080B582B000AFFB1D00221A70F0
:10460C000B4B1A680A4B802149000A431A6003209D
:10461C0000F010F8031E03D0FB1D01221A7001E0FC
:10462C00FFF77EFDFB1D1B781800BD4602B080BD58
:10463C000020024090B585B000AF78600F23FB18C6
:10464C0000221A701D4B1B78002B2BD01C4B1C68A6
:10465C001A4B1B781900FA239800FBF74DFD030049
:10466C0019002000FBF748FD0300180001F077F853
:10467C00031E12D17B68032B0AD8796801235B4295
:10468C000022180001F046F80E4B7A681A600DE013
:10469C000F23FB1801221A7008E00F23FB180122CC
:1046AC001A7003E00F23FB1801221A700F23FB185A
:1046BC001B781800BD4605B090BDC0461800002000
:1046CC00100000201400002080B500AF054B1B78B3
:1046DC001A00054B1B68D218034B1A60C046BD4626
:1046EC0080BDC046180000202C04002080B500AF0F
:1046FC00024B1B681800BD4680BDC0462C04002030
:10470C0080B584B000AF7860FFF7F0FF0300BB60AA
:10471C007B68FB60FB68013305D00A4B1B781A00E1
:10472C00FB689B18FB60C046FFF7E0FF0200BB680C
:10473C00D31AFA689A42F7D8C046C046BD4604B0B0
:10474C0080BDC0461800002080B582B000AF7860F4
:10475C0039607B681B68054A1A403B681A437B68C2
:10476C001A60C046BD4602B080BDC046FFFF3FFE8A
:10477C0080B582B000AF78607B681A68E0235B0478
:10478C0013401800BD4602B080BD80B584B000AFA8
:10479C00F860B9607A60FB685B69BA6804210A400A
:1047AC00072191400A00D2431A40BB6804210B40F8
:1047BC00796899400B001A43FB685A61C046BD46A4
:1047CC0004B080BD80B582B000AF786039607B6882
:1047DC005B693A6804210A40072191400A001A409B
:1047EC003B6804210B40DA4013001800BD4602B0B0
:1047FC0080BD80B582B000AF78607B68DA68C0237A
:10480C001B01134001D1012300E000231800BD4619
:10481C0002B080BD80B584B000AFF860B9607A603A
:10482C00FB689B6ABA681F210A400F2191400A005D
:10483C00D2431A407B689B0E0F211940BB681F2086
:10484C00034099400B001A43FB689A62C046BD4670
:10485C0004B080BD80B582B000AF786039607B68F1
:10486C009A6A3B685B035B0B1A437B689A62C0468F
:10487C00BD4602B080BD80B582B000AF78603960B3
:10488C007B689B6A3A685203520BD2431A407B688E
:10489C009A62C046BD4602B080BD000080B584B0AF
:1048AC0000AFF860B9607A60FB685B69BA681202A5
:1048BC00D2431A40BB681B0279680B4004490B4079
:1048CC001A43FB685A61C046BD4604B080BDC04661
:1048DC0000FFFF0780B582B000AF78607B689B68F3
:1048EC00054A1340802252051A437B689A60C046E1
:1048FC00BD4602B080BDC046E8FFFF6F80B582B0F8
:10490C0000AF78607B689A6880235B051A4080232F
:10491C005B059A4201D1012300E000231800BD463B
:10492C0002B080BD80B582B000AF78607B689B68B8
:10493C00044A134001221A437B689A60C046BD4664
:10494C0002B080BDE8FFFF7F80B582B000AF786019
:10495C007B689B68044A134002221A437B689A6066
:10496C00C046BD4602B080BDE8FFFF7F80B582B077
:10497C0000AF78607B689B6801221340012B01D14A
:10498C00012300E000231800BD4602B080BD80B5B5
:10499C0082B000AF78607B689B6802221340022BC8
:1049AC0001D1012300E000231800BD4602B080BDF8
:1049BC0080B582B000AF78607B689B68044A134076
:1049CC0004221A437B689A60C046BD4602B080BD83
:1049DC00E8FFFF7F80B582B000AF78607B689B6892
:1049EC00044A134010221A437B689A60C046BD46A5
:1049FC0002B080BDE8FFFF7F80B582B000AF786069
:104A0C007B689B6804221340042B01D1012300E036
:104A1C0000231800BD4602B080BD000080B588B0F0
:104A2C0000AF78601F23FB1800221A700023BB61B3
:104A3C0000237B610023FB607B68002B01D10123E9
:104A4C007FE17B689B6D002B0AD17B681800FFF718
:104A5C008BFB7B680022DA657B6854220021995419
:104A6C007B681B681800FFF749FF031E15D17B6894
:104A7C001B681800FFF72EFFB44B1B68B4491800D5
:104A8C00FBF73AFB030001335B00FB6002E0FB68C1
:104A9C00013BFB60FB68002BF9D17B681B6818009D
:104AAC00FFF72CFF031E0FD17B689B6D10221A435E
:104ABC007B689A657B68DB6D01221A437B68DA653B
:104ACC001F23FB1801221A707B681B681800FFF764
:104ADC0093FF03003B617B689B6D1022134000D059
:104AEC0022E13B69002B00D01EE17B689B6D994A4B
:104AFC00134002221A437B689A657B681B68180076
:104B0C00FFF734FF031E00D0ADE07B689A687B682A
:104B1C001B7E9B031A437B685B7EDB031A437B681B
:104B2C009B7E5B031A437B681B6B002B02D080239C
:104B3C005B0100E000231A437B68DB681A437B6847
:104B4C001B69002B04DA7B681B695B005B0801E0C6
:104B5C0080239B031A437B682C215B5C5B00134313
:104B6C00BA691343BB617B6820229B5C012B15D176
:104B7C007B689B7E002B05D1BB69802252021343BC
:104B8C00BB610BE07B689B6D20221A437B689A65A6
:104B9C007B68DB6D01221A437B68DA657B685B6A94
:104BAC00002B0AD07B685A6AE0235B001A407B68B2
:104BBC009B6A1343BA691343BB617B681B68DB6850
:104BCC00654A134019007B681B68BA690A43DA60AE
:104BDC007B685B689B0F9A077B68DB6C13437A6975
:104BEC0013437B617B683C229B5C012B11D17B685E
:104BFC005B689B0F9A077B681B6C1A437B685B6C2A
:104C0C001A437B689B6C1A437B6913430122134341
:104C1C007B617B681B681B69504A134019007B68D9
:104C2C001B687A690A431A617B685A68C0231B06A1
:104C3C009A4218D07B685A688023DB059A4212D0BE
:104C4C007B685A6880231B069A420CD0444B1B6825
:104C5C00444A134019007B685A68F0239B031A409E
:104C6C003F4B0A431A607B6818687B685B6B1A00C1
:104C7C000021FFF78AFD7B6818687B689B6B3A49BB
:104C8C001A00FFF782FD7B681B69002B09D17B683A
:104C9C001B689A6A7B681B68102149420A439A6216
:104CAC0018E07B681A6980239B039A4212D17B68B7
:104CBC001B689B6A7B68DB69013B9B001C221340D1
:104CCC00102252429A4011007B681A6E7B681B6856
:104CDC000A439A627B681B6800211800FFF772FD7B
:104CEC0002007B685B6B9A420BD17B680022DA6511
:104CFC007B689B6D0322934301221A437B689A6560
:104D0C001CE07B689B6D1222934310221A437B6834
:104D1C009A657B68DB6D01221A437B68DA651F2379
:104D2C00FB1801221A7009E07B689B6D10221A4354
:104D3C007B689A651F23FB1801221A701F23FB182E
:104D4C001B781800BD4608B080BDC046100000207E
:104D5C00400D0300FDFEFFFF0102FEFF02FCFF1FE2
:104D6C0008270140FFFFC3FF04FFFF07B0B584B065
:104D7C0000AF78607B681B681800FFF73DFE031ED0
:104D8C0035D17B6854229B5C012B01D1022335E089
:104D9C007B685422012199540F257C197B681800DB
:104DAC0000F028FB030023707B191B78002B19D112
:104DBC007B689B6D134A1340802252001A437B6818
:104DCC009A657B680022DA657B681B681C221A6076
:104DDC007B685422002199547B681B681800FFF7EC
:104DEC00E7FD08E07B6854220021995403E00F236F
:104DFC00FB1802221A700F23FB181B781800BD46F3
:104E0C0004B0B0BDFEF0FFFFB0B584B000AF786069
:104E1C007B6854229B5C012B01D1022329E07B6827
:104E2C005422012199540F257C197B68180000F03D
:104E3C009FFA030023707B191B78002B12D17C196D
:104E4C007B68180000F05CFB030023707B191B7857
:104E5C00002B07D17B689B6D084A134001221A4333
:104E6C007B689A657B685422002199540F23FB18A8
:104E7C001B781800BD4604B0B0BDC046FEFEFFFF57
:104E8C0080B584B000AF786039607B685B69082BB3
:104E9C0002D10823FB600FE07B681B68DB680122F2
:104EAC00134007D07B689B6D20221A437B689A6560
:104EBC00012372E00423FB60FFF718FC0300BB60C6
:104ECC001FE03B6801331CD0FFF710FC0200BB68ED
:104EDC00D31A3A689A4202D33B68002B11D17B68F3
:104EEC001B681B68FA6813400BD17B689B6D04220E
:104EFC001A437B689A657B685422002199540323DA
:104F0C004BE07B681B681B68FA681340D9D07B6840
:104F1C009B6D802292001A437B689A657B681B68A4
:104F2C001800FFF766FC031E2ED07B689B7E002BBF
:104F3C002AD17B681B681B6808221340082B23D1DD
:104F4C007B681B681800FFF757FD031E10D17B68A8
:104F5C001B685A687B681B680C218A435A607B6803
:104F6C009B6D104A134001221A437B689A650BE033
:104F7C007B689B6D20221A437B689A657B68DB6D8E
:104F8C0001221A437B68DA657B681B7E002B03D1F8
:104F9C007B681B680C221A6000231800BD4604B005
:104FAC0080BDC046FEFEFFFF80B582B000AF7860CA
:104FBC007B681B681B6C1800BD4602B080BD0000EE
:104FCC0080B586B000AF786039601723FB180022DB
:104FDC001A700023FB607B6854229B5C012B01D16F
:104FEC000223C0E17B685422012199547B681B6821
:104FFC001800FFF701FD031E00D0A3E13B685B68BE
:10500C00022B00D143E17B681A6980231B069A426C
:10501C0004D07B681B69C14A934208D17B681A682B
:10502C003B681B6819001000FFF714FCC9E07B6893
:10503C001A6E3B685B681F210B400F2199400B00D7
:10504C00DB43134019003B681B685B035B0B05D10A
:10505C003B681B689B0E1F22134098E03B681B6843
:10506C000122134000D091E03B681B6802221340E0
:10507C0000D089E03B681B680422134000D081E01B
:10508C003B681B680822134000D079E03B681B6822
:10509C001022134000D071E03B681B6820221340A3
:1050AC0000D069E03B681B684022134000D061E0EF
:1050BC003B681B688022134000D059E03B681A689B
:1050CC0080235B00134051D13B681A6880239B00FE
:1050DC00134049D13B681A688023DB00134041D14F
:1050EC003B681A6880231B01134039D13B681A684E
:1050FC0080235B01134031D13B681A6880239B01EC
:10510C00134029D13B681A688023DB01134021D15D
:10511C003B681A6880231B02134019D13B681A683C
:10512C0080235B02134011D13B681A6880239B02D9
:10513C00134009D13B681A688023DB02134001D06D
:10514C00122324E0002322E0112320E010231EE090
:10515C000F231CE00E231AE00D2318E00C2316E09D
:10516C000B2314E00A2312E0092310E008230EE0BD
:10517C0007230CE006230AE0052308E0042306E0DD
:10518C00032304E0022302E0012300E000233A6839
:10519C0052681F20024093400A001A437B681A662B
:1051AC003B685B689B085A1C7B68DB699A4208D891
:1051BC007B6818683B6859683B681B681A00FFF7E6
:1051CC0029FB7B6818683B6819683B689B681A0068
:1051DC00FFF764FB3B681B68002B00DBBCE0504B0B
:1051EC001800FFF7C5FA03003B613B681B684D4A8A
:1051FC00934222D13A6980231B0413401DD13B6991
:10520C00802212041343464A19001000FFF79CFA3F
:10521C00454B1B6845491800FAF76EFF03005A1CF2
:10522C0013005B009B189B00FB6002E0FB68013BDA
:10523C00FB60FB68002BF9D18EE03B681B683C4A95
:10524C0093420ED13A6980235B04134009D13B6928
:10525C00802252041343324A19001000FFF774FAEB
:10526C007AE03B681B68334A934200D074E03A6999
:10527C008023DB03134000D06EE03B698022D20315
:10528C001343274A19001000FFF75EFA64E07B68AD
:10529C001A6980231B069A4204D07B681B691F4A3B
:1052AC00934207D17B681A683B681B681900100091
:1052BC00FFF7E1FA3B681B68002B4DDA184B18001E
:1052CC00FFF756FA03003B613B681B68154A934293
:1052DC0008D13B69184A1340114A19001000FFF716
:1052EC0033FA39E03B681B68114A934208D13B6999
:1052FC00124A13400A4A19001000FFF725FA2BE056
:10530C003B681B680B4A934226D13B690C4A1340FD
:10531C00034A19001000FFF717FA1DE00400008083
:10532C0008270140001000B010000020400D0300C1
:10533C00004000B8002000B4FFFF7FFFFFFFFFFE1E
:10534C00FFFFBFFF7B689B6D20221A437B689A6529
:10535C001723FB1801221A707B68542200219954E0
:10536C001723FB181B781800BD4606B080BDC0463D
:10537C0080B584B000AF78607B681B681800FFF7BD
:10538C003BFB031E31D07B681B681800FFF7FFFA4C
:10539C00031E04D17B681B681800FFF71BFBFFF78B
:1053AC00A5F90300FB601AE0FFF7A0F90200FB6807
:1053BC00D31A022B13D97B681B689B6804221340F9
:1053CC000DD07B689B6D10221A437B689A657B68B5
:1053DC00DB6D01221A437B68DA65012306E07B68EA
:1053EC001B689B6804221340DED100231800BD46C5
:1053FC0004B080BD80B584B000AF78600023BB6082
:10540C007B681B681800FFF7B1FA031E00D069E037
:10541C007B681B689B68364A13400DD07B689B6D7C
:10542C0010221A437B689A657B68DB6D01221A4354
:10543C007B68DA65012356E07B681B681800FFF770
:10544C0071FA2C4B1800FFF793F9020080231B0410
:10545C0013400FD0284B1B6828491800FAF74CFE54
:10546C0003000133BB6002E0BB68013BBB60BB685F
:10547C00002BF9D17B685B7E012B33D0FFF736F91B
:10548C000300FB6027E07B681B681800FFF76EFACF
:10549C00031E04D17B681B681800FFF743FAFFF763
:1054AC0025F90200FB68D31A022B14D97B681B6800
:1054BC001B6801221340012B0DD07B689B6D1022C1
:1054CC001A437B689A657B68DB6D01221A437B6803
:1054DC00DA65012307E07B681B681B680122134017
:1054EC00012BD0D100231800BD4604B080BDC046AE
:1054FC00170000800827014010000020400D030019
:10550C0080B584B000AF78607B681B681800FFF72B
:10551C003EFA0300FB607B681B681800FFF726FA55
:10552C00031E46D0FB68002B43D17B681B689B682D
:10553C0005221340012B0DD17B681B681800FFF767
:10554C0003FA7B681B6803221A60FFF7CFF803008D
:10555C00BB6028E07B689B6D10221A437B689A65C0
:10556C007B68DB6D01221A437B68DA65012321E03D
:10557C00FFF7BCF80200BB68D31A022B13D97B6867
:10558C001B689B68012213400DD07B689B6D102219
:10559C001A437B689A657B68DB6D01221A437B6832
:1055AC00DA65012306E07B681B689B6801221340C7
:1055BC00DED100231800BD4604B080BD80B582B09A
:1055CC0000AF0200FB1D1A70FB1D1B787F2B09D846
:1055DC00FB1D1B781A001F231A40044B012191401C
:1055EC000A001A60C046BD4602B080BD00E100E072
:1055FC0090B583B000AF02003960FB1D1A70FB1D23
:10560C001B787F2B28D82F4AFB1D1B785BB29B087D
:10561C00C0339B009B58FA1D1278110003220A40DC
:10562C00D200FF2191400A00D2431A4011003B687E
:10563C009B01FF221A40FB1D1B781800032303401B
:10564C00DB009A401F48FB1D1B785BB29B080A438A
:10565C00C0339B001A5031E01B4AFB1D1B7819000C
:10566C000F230B40083B9B0806339B00D3180433D5
:10567C001B68FA1D1278110003220A40D200FF2188
:10568C0091400A00D2431A4011003B689B01FF2253
:10569C001A40FB1D1B78180003230340DB009A40C3
:1056AC000948FB1D1B781C000F232340083B9B085B
:1056BC000A4306339B00C31804331A60C046BD4628
:1056CC0003B090BD00E100E000ED00E080B582B0D9
:1056DC0000AF78607B685A1E80235B049A4201D32A
:1056EC00012310E00A4B7A68013A5A6001235B42AD
:1056FC0003211800FFF77CFF054B00229A60044B36
:10570C0007221A6000231800BD4602B080BDC046B7
:10571C0010E000E080B584B000AFB9607A600F2172
:10572C007B18021C1A70BA687B181B785BB21100CC
:10573C001800FFF75DFFC046BD4604B080BD80B5C4
:10574C0082B000AF0200FB1D1A70FB1D1B785BB210
:10575C001800FFF733FFC046BD4602B080BD80B5D0
:10576C0082B000AF78607B681800FFF7AFFF0300D2
:10577C001800BD4602B080BD80B582B000AF786025
:10578C007B68002B01D101234FE07B6825229B5CB9
:10579C00DBB2022B08D07B680422DA637B682422FC
:1057AC0000219954012340E07B681B681A687B68D0
:1057BC001B680E218A431A607B689B6C1A687B6895
:1057CC009B6C1C490A401A607B681B681A687B68D2
:1057DC001B6801218A431A607B685B6C1C221A408F
:1057EC007B681B6C012191400A005A607B68DB6C62
:1057FC007A68126D5A607B685B6D002B0CD07B68ED
:10580C005B6D1A687B685B6D0A490A401A607B689D
:10581C009B6D7A68D26D5A607B6825220121995460
:10582C007B6824220021995400231800BD4602B045
:10583C0080BDC046FFFEFFFF80B584B000AF78602E
:10584C000F217B1800221A707B6825229B5CDBB22F
:10585C00022B06D07B680422DA637B1801221A70B3
:10586C0048E07B681B681A687B681B680E218A43BA
:10587C001A607B681B681A687B681B6801218A4365
:10588C001A607B689B6C1A687B689B6C1D490A408C
:10589C001A607B685B6C1C221A407B681B6C0121B4
:1058AC0091400A005A607B68DB6C7A68126D5A6012
:1058BC007B685B6D002B0CD07B685B6D1A687B681A
:1058CC005B6D10490A401A607B689B6D7A68D26DDB
:1058DC005A607B682522012199547B68242200217F
:1058EC0099547B689B6B002B04D07B689B6B7A680C
:1058FC00100098470F23FB181B781800BD4604B006
:10590C0080BDC046FFFEFFFF80B584B000AF78605D
:10591C007B68002B01D101234EE17B685C229B5CF0
:10592C00DBB2002B07D17B685D22002199547B6888
:10593C001800FEF775FC7B681B689A697B681B680E
:10594C0010218A439A61FEF7D1FE0300FB6012E03E
:10595C00FEF7CCFE0200FB68D31A0A2B0BD97B682E
:10596C001B6E01221A437B681A667B685C2203213A
:10597C009954012320E17B681B689B690822134022
:10598C00082BE5D07B681B689A697B681B68012132
:10599C000A439A61FEF7AAFE0300FB6012E0FEF7D1
:1059AC00A5FE0200FB68D31A0A2B0BD97B681B6E71
:1059BC0001221A437B681A667B685C220321995486
:1059CC000123F9E07B681B689B6901221340E6D038
:1059DC007B681B689A697B681B6802210A439A6181
:1059EC007B681B68764A934203D1764A7B685B6876
:1059FC0013607B681B7C012B08D17B681B689A6940
:105A0C007B681B6840218A439A6107E07B681B68AE
:105A1C009A697B681B6840210A439A617B685B7CAE
:105A2C00012B09D17B681B689A697B681B688021F4
:105A3C00C9010A439A6107E07B681B689A697B6815
:105A4C001B6861490A409A617B689B7C012B08D1D9
:105A5C007B681B689A697B681B685C490A409A6181
:105A6C0008E07B681B689A697B681B688021490188
:105A7C000A439A617B681B689B69554A134019005D
:105A8C007B689A687B681B680A439A617B681B6811
:105A9C009A697B681B68A4218A439A617B681B689E
:105AAC001A697B681B6810218A431A617B68DB6862
:105ABC00012B08D17B681B689A697B681B680421E1
:105ACC000A439A612CE07B68DB68002B28D07B684A
